{
  "_format": "hh-sol-artifact-1",
  "contractName": "Web23Token",
  "sourceName": "contracts/Token.sol",
  "abi": [
    {
      "inputs": [
        {
          "internalType": "uint256",
          "name": "_MAXSUPPLY",
          "type": "uint256"
        }
      ],
      "stateMutability": "nonpayable",
      "type": "constructor"
    },
    {
      "anonymous": false,
      "inputs": [
        {
          "indexed": true,
          "internalType": "address",
          "name": "owner",
          "type": "address"
        },
        {
          "indexed": true,
          "internalType": "address",
          "name": "spender",
          "type": "address"
        },
        {
          "indexed": false,
          "internalType": "uint256",
          "name": "value",
          "type": "uint256"
        }
      ],
      "name": "Approval",
      "type": "event"
    },
    {
      "anonymous": false,
      "inputs": [
        {
          "indexed": true,
          "internalType": "address",
          "name": "previousOwner",
          "type": "address"
        },
        {
          "indexed": true,
          "internalType": "address",
          "name": "newOwner",
          "type": "address"
        }
      ],
      "name": "OwnershipTransferred",
      "type": "event"
    },
    {
      "anonymous": false,
      "inputs": [
        {
          "indexed": false,
          "internalType": "address",
          "name": "account",
          "type": "address"
        }
      ],
      "name": "Paused",
      "type": "event"
    },
    {
      "anonymous": false,
      "inputs": [
        {
          "indexed": true,
          "internalType": "address",
          "name": "from",
          "type": "address"
        },
        {
          "indexed": true,
          "internalType": "address",
          "name": "to",
          "type": "address"
        },
        {
          "indexed": false,
          "internalType": "uint256",
          "name": "value",
          "type": "uint256"
        }
      ],
      "name": "Transfer",
      "type": "event"
    },
    {
      "anonymous": false,
      "inputs": [
        {
          "indexed": false,
          "internalType": "address",
          "name": "account",
          "type": "address"
        }
      ],
      "name": "Unpaused",
      "type": "event"
    },
    {
      "inputs": [
        {
          "internalType": "address",
          "name": "owner",
          "type": "address"
        },
        {
          "internalType": "address",
          "name": "spender",
          "type": "address"
        }
      ],
      "name": "allowance",
      "outputs": [
        {
          "internalType": "uint256",
          "name": "",
          "type": "uint256"
        }
      ],
      "stateMutability": "view",
      "type": "function"
    },
    {
      "inputs": [
        {
          "internalType": "address",
          "name": "spender",
          "type": "address"
        },
        {
          "internalType": "uint256",
          "name": "amount",
          "type": "uint256"
        }
      ],
      "name": "approve",
      "outputs": [
        {
          "internalType": "bool",
          "name": "",
          "type": "bool"
        }
      ],
      "stateMutability": "nonpayable",
      "type": "function"
    },
    {
      "inputs": [
        {
          "internalType": "address",
          "name": "account",
          "type": "address"
        }
      ],
      "name": "balanceOf",
      "outputs": [
        {
          "internalType": "uint256",
          "name": "",
          "type": "uint256"
        }
      ],
      "stateMutability": "view",
      "type": "function"
    },
    {
      "inputs": [],
      "name": "decimals",
      "outputs": [
        {
          "internalType": "uint8",
          "name": "",
          "type": "uint8"
        }
      ],
      "stateMutability": "view",
      "type": "function"
    },
    {
      "inputs": [
        {
          "internalType": "address",
          "name": "spender",
          "type": "address"
        },
        {
          "internalType": "uint256",
          "name": "subtractedValue",
          "type": "uint256"
        }
      ],
      "name": "decreaseAllowance",
      "outputs": [
        {
          "internalType": "bool",
          "name": "",
          "type": "bool"
        }
      ],
      "stateMutability": "nonpayable",
      "type": "function"
    },
    {
      "inputs": [
        {
          "internalType": "address",
          "name": "spender",
          "type": "address"
        },
        {
          "internalType": "uint256",
          "name": "addedValue",
          "type": "uint256"
        }
      ],
      "name": "increaseAllowance",
      "outputs": [
        {
          "internalType": "bool",
          "name": "",
          "type": "bool"
        }
      ],
      "stateMutability": "nonpayable",
      "type": "function"
    },
    {
      "inputs": [],
      "name": "name",
      "outputs": [
        {
          "internalType": "string",
          "name": "",
          "type": "string"
        }
      ],
      "stateMutability": "view",
      "type": "function"
    },
    {
      "inputs": [],
      "name": "owner",
      "outputs": [
        {
          "internalType": "address",
          "name": "",
          "type": "address"
        }
      ],
      "stateMutability": "view",
      "type": "function"
    },
    {
      "inputs": [],
      "name": "pause",
      "outputs": [],
      "stateMutability": "nonpayable",
      "type": "function"
    },
    {
      "inputs": [],
      "name": "paused",
      "outputs": [
        {
          "internalType": "bool",
          "name": "",
          "type": "bool"
        }
      ],
      "stateMutability": "view",
      "type": "function"
    },
    {
      "inputs": [],
      "name": "renounceOwnership",
      "outputs": [],
      "stateMutability": "nonpayable",
      "type": "function"
    },
    {
      "inputs": [],
      "name": "symbol",
      "outputs": [
        {
          "internalType": "string",
          "name": "",
          "type": "string"
        }
      ],
      "stateMutability": "view",
      "type": "function"
    },
    {
      "inputs": [],
      "name": "totalSupply",
      "outputs": [
        {
          "internalType": "uint256",
          "name": "",
          "type": "uint256"
        }
      ],
      "stateMutability": "view",
      "type": "function"
    },
    {
      "inputs": [
        {
          "internalType": "address",
          "name": "to",
          "type": "address"
        },
        {
          "internalType": "uint256",
          "name": "amount",
          "type": "uint256"
        }
      ],
      "name": "transfer",
      "outputs": [
        {
          "internalType": "bool",
          "name": "",
          "type": "bool"
        }
      ],
      "stateMutability": "nonpayable",
      "type": "function"
    },
    {
      "inputs": [
        {
          "internalType": "address",
          "name": "from",
          "type": "address"
        },
        {
          "internalType": "address",
          "name": "to",
          "type": "address"
        },
        {
          "internalType": "uint256",
          "name": "amount",
          "type": "uint256"
        }
      ],
      "name": "transferFrom",
      "outputs": [
        {
          "internalType": "bool",
          "name": "",
          "type": "bool"
        }
      ],
      "stateMutability": "nonpayable",
      "type": "function"
    },
    {
      "inputs": [
        {
          "internalType": "address",
          "name": "newOwner",
          "type": "address"
        }
      ],
      "name": "transferOwnership",
      "outputs": [],
      "stateMutability": "nonpayable",
      "type": "function"
    },
    {
      "inputs": [],
      "name": "unpause",
      "outputs": [],
      "stateMutability": "nonpayable",
      "type": "function"
    }
  ],
  "bytecode": "0x60806040523480156200001157600080fd5b506040516200104738038062001047833981016040819052620000349162000275565b6040518060400160405280600b81526020016a2bb2b11919902a37b5b2b760a91b81525060405180604001604052806005815260200164574542323360d81b815250816003908162000087919062000333565b50600462000096828262000333565b50506005805460ff1916905550620000ae33620000c1565b620000ba33826200011b565b5062000427565b600580546001600160a01b03838116610100818102610100600160a81b031985161790945560405193909204169182907f8be0079c531659141344cd1fd0a4f28419497f9722a3daafe3b4186f6b6457e090600090a35050565b6001600160a01b038216620001775760405162461bcd60e51b815260206004820152601f60248201527f45524332303a206d696e7420746f20746865207a65726f20616464726573730060448201526064015b60405180910390fd5b6200018560008383620001f0565b8060026000828254620001999190620003ff565b90915550506001600160a01b038216600081815260208181526040808320805486019055518481527fddf252ad1be2c89b69c2b068fc378daa952ba7f163c4a11628f55a4df523b3ef910160405180910390a35050565b620002088383836200027060201b620004ca1760201c565b60055460ff1615620002705760405162461bcd60e51b815260206004820152602a60248201527f45524332305061757361626c653a20746f6b656e207472616e736665722077686044820152691a5b19481c185d5cd95960b21b60648201526084016200016e565b505050565b6000602082840312156200028857600080fd5b5051919050565b634e487b7160e01b600052604160045260246000fd5b600181811c90821680620002ba57607f821691505b602082108103620002db57634e487b7160e01b600052602260045260246000fd5b50919050565b601f8211156200027057600081815260208120601f850160051c810160208610156200030a5750805b601f850160051c820191505b818110156200032b5782815560010162000316565b505050505050565b81516001600160401b038111156200034f576200034f6200028f565b6200036781620003608454620002a5565b84620002e1565b602080601f8311600181146200039f5760008415620003865750858301515b600019600386901b1c1916600185901b1785556200032b565b600085815260208120601f198616915b82811015620003d057888601518255948401946001909101908401620003af565b5085821015620003ef5787850151600019600388901b60f8161c191681555b5050505050600190811b01905550565b808201808211156200042157634e487b7160e01b600052601160045260246000fd5b92915050565b610c1080620004376000396000f3fe608060405234801561001057600080fd5b506004361061010b5760003560e01c806370a08231116100a257806395d89b411161007157806395d89b411461020f578063a457c2d714610217578063a9059cbb1461022a578063dd62ed3e1461023d578063f2fde38b1461025057600080fd5b806370a08231146101ad578063715018a6146101d65780638456cb59146101de5780638da5cb5b146101e657600080fd5b8063313ce567116100de578063313ce5671461017657806339509351146101855780633f4ba83a146101985780635c975abb146101a257600080fd5b806306fdde0314610110578063095ea7b31461012e57806318160ddd1461015157806323b872dd14610163575b600080fd5b610118610263565b6040516101259190610a5a565b60405180910390f35b61014161013c366004610ac4565b6102f5565b6040519015158152602001610125565b6002545b604051908152602001610125565b610141610171366004610aee565b61030f565b60405160128152602001610125565b610141610193366004610ac4565b610333565b6101a0610355565b005b60055460ff16610141565b6101556101bb366004610b2a565b6001600160a01b031660009081526020819052604090205490565b6101a0610367565b6101a0610379565b60055461010090046001600160a01b03166040516001600160a01b039091168152602001610125565b610118610389565b610141610225366004610ac4565b610398565b610141610238366004610ac4565b610418565b61015561024b366004610b4c565b610426565b6101a061025e366004610b2a565b610451565b60606003805461027290610b7f565b80601f016020809104026020016040519081016040528092919081815260200182805461029e90610b7f565b80156102eb5780601f106102c0576101008083540402835291602001916102eb565b820191906000526020600020905b8154815290600101906020018083116102ce57829003601f168201915b5050505050905090565b6000336103038185856104cf565b60019150505b92915050565b60003361031d8582856105f3565b61032885858561066d565b506001949350505050565b6000336103038185856103468383610426565b6103509190610bb9565b6104cf565b61035d61081c565b61036561087c565b565b61036f61081c565b61036560006108ce565b61038161081c565b610365610928565b60606004805461027290610b7f565b600033816103a68286610426565b90508381101561040b5760405162461bcd60e51b815260206004820152602560248201527f45524332303a2064656372656173656420616c6c6f77616e63652062656c6f77604482015264207a65726f60d81b60648201526084015b60405180910390fd5b61032882868684036104cf565b60003361030381858561066d565b6001600160a01b03918216600090815260016020908152604080832093909416825291909152205490565b61045961081c565b6001600160a01b0381166104be5760405162461bcd60e51b815260206004820152602660248201527f4f776e61626c653a206e6577206f776e657220697320746865207a65726f206160448201526564647265737360d01b6064820152608401610402565b6104c7816108ce565b50565b505050565b6001600160a01b0383166105315760405162461bcd60e51b8152602060048201526024808201527f45524332303a20617070726f76652066726f6d20746865207a65726f206164646044820152637265737360e01b6064820152608401610402565b6001600160a01b0382166105925760405162461bcd60e51b815260206004820152602260248201527f45524332303a20617070726f766520746f20746865207a65726f206164647265604482015261737360f01b6064820152608401610402565b6001600160a01b0383811660008181526001602090815260408083209487168084529482529182902085905590518481527f8c5be1e5ebec7d5bd14f71427d1e84f3dd0314c0f7b2291e5b200ac8c7c3b925910160405180910390a3505050565b60006105ff8484610426565b90506000198114610667578181101561065a5760405162461bcd60e51b815260206004820152601d60248201527f45524332303a20696e73756666696369656e7420616c6c6f77616e63650000006044820152606401610402565b61066784848484036104cf565b50505050565b6001600160a01b0383166106d15760405162461bcd60e51b815260206004820152602560248201527f45524332303a207472616e736665722066726f6d20746865207a65726f206164604482015264647265737360d81b6064820152608401610402565b6001600160a01b0382166107335760405162461bcd60e51b815260206004820152602360248201527f45524332303a207472616e7366657220746f20746865207a65726f206164647260448201526265737360e81b6064820152608401610402565b61073e838383610965565b6001600160a01b038316600090815260208190526040902054818110156107b65760405162461bcd60e51b815260206004820152602660248201527f45524332303a207472616e7366657220616d6f756e7420657863656564732062604482015265616c616e636560d01b6064820152608401610402565b6001600160a01b03848116600081815260208181526040808320878703905593871680835291849020805487019055925185815290927fddf252ad1be2c89b69c2b068fc378daa952ba7f163c4a11628f55a4df523b3ef910160405180910390a3610667565b6005546001600160a01b036101009091041633146103655760405162461bcd60e51b815260206004820181905260248201527f4f776e61626c653a2063616c6c6572206973206e6f7420746865206f776e65726044820152606401610402565b6108846109cb565b6005805460ff191690557f5db9ee0a495bf2e6ff9c91a7834c1ba4fdd244a5e8aa4e537bd38aeae4b073aa335b6040516001600160a01b03909116815260200160405180910390a1565b600580546001600160a01b03838116610100818102610100600160a81b031985161790945560405193909204169182907f8be0079c531659141344cd1fd0a4f28419497f9722a3daafe3b4186f6b6457e090600090a35050565b610930610a14565b6005805460ff191660011790557f62e78cea01bee320cd4e420270b5ea74000d11b0c9f74754ebdbfc544b05a2586108b13390565b60055460ff16156104ca5760405162461bcd60e51b815260206004820152602a60248201527f45524332305061757361626c653a20746f6b656e207472616e736665722077686044820152691a5b19481c185d5cd95960b21b6064820152608401610402565b60055460ff166103655760405162461bcd60e51b815260206004820152601460248201527314185d5cd8589b194e881b9bdd081c185d5cd95960621b6044820152606401610402565b60055460ff16156103655760405162461bcd60e51b815260206004820152601060248201526f14185d5cd8589b194e881c185d5cd95960821b6044820152606401610402565b600060208083528351808285015260005b81811015610a8757858101830151858201604001528201610a6b565b506000604082860101526040601f19601f8301168501019250505092915050565b80356001600160a01b0381168114610abf57600080fd5b919050565b60008060408385031215610ad757600080fd5b610ae083610aa8565b946020939093013593505050565b600080600060608486031215610b0357600080fd5b610b0c84610aa8565b9250610b1a60208501610aa8565b9150604084013590509250925092565b600060208284031215610b3c57600080fd5b610b4582610aa8565b9392505050565b60008060408385031215610b5f57600080fd5b610b6883610aa8565b9150610b7660208401610aa8565b90509250929050565b600181811c90821680610b9357607f821691505b602082108103610bb357634e487b7160e01b600052602260045260246000fd5b50919050565b8082018082111561030957634e487b7160e01b600052601160045260246000fdfea26469706673582212201e5ba5f2f107e9258551589c5e15b8ca2379ca2c0a9493f9c6342f76ad06976f64736f6c63430008100033",
  "linkReferences": {},
  "deployedLinkReferences": {}
}