{
  "_format": "hh-sol-artifact-1",
  "contractName": "TokenVesting",
  "sourceName": "contracts/TokenVesting.sol",
  "abi": [
    {
      "inputs": [
        {
          "internalType": "address",
          "name": "USDT_",
          "type": "address"
        },
        {
          "internalType": "address",
          "name": "admin_",
          "type": "address"
        }
      ],
      "stateMutability": "nonpayable",
      "type": "constructor"
    },
    {
      "anonymous": false,
      "inputs": [
        {
          "indexed": true,
          "internalType": "address",
          "name": "previousOwner",
          "type": "address"
        },
        {
          "indexed": true,
          "internalType": "address",
          "name": "newOwner",
          "type": "address"
        }
      ],
      "name": "OwnershipTransferred",
      "type": "event"
    },
    {
      "anonymous": false,
      "inputs": [
        {
          "indexed": false,
          "internalType": "uint256",
          "name": "amount",
          "type": "uint256"
        }
      ],
      "name": "Released",
      "type": "event"
    },
    {
      "anonymous": false,
      "inputs": [],
      "name": "Revoked",
      "type": "event"
    },
    {
      "stateMutability": "payable",
      "type": "fallback"
    },
    {
      "inputs": [],
      "name": "_USDT",
      "outputs": [
        {
          "internalType": "contract IERC20",
          "name": "",
          "type": "address"
        }
      ],
      "stateMutability": "view",
      "type": "function"
    },
    {
      "inputs": [],
      "name": "admin",
      "outputs": [
        {
          "internalType": "address",
          "name": "",
          "type": "address"
        }
      ],
      "stateMutability": "view",
      "type": "function"
    },
    {
      "inputs": [],
      "name": "claim",
      "outputs": [],
      "stateMutability": "nonpayable",
      "type": "function"
    },
    {
      "inputs": [
        {
          "internalType": "address",
          "name": "holder",
          "type": "address"
        }
      ],
      "name": "computeNextVestingScheduleIdForHolder",
      "outputs": [
        {
          "internalType": "bytes32",
          "name": "",
          "type": "bytes32"
        }
      ],
      "stateMutability": "view",
      "type": "function"
    },
    {
      "inputs": [
        {
          "internalType": "bytes32",
          "name": "vestingScheduleId",
          "type": "bytes32"
        }
      ],
      "name": "computeReleasableAmount",
      "outputs": [
        {
          "internalType": "uint256",
          "name": "",
          "type": "uint256"
        }
      ],
      "stateMutability": "view",
      "type": "function"
    },
    {
      "inputs": [
        {
          "internalType": "address",
          "name": "holder",
          "type": "address"
        },
        {
          "internalType": "uint256",
          "name": "index",
          "type": "uint256"
        }
      ],
      "name": "computeVestingScheduleIdForAddressAndIndex",
      "outputs": [
        {
          "internalType": "bytes32",
          "name": "",
          "type": "bytes32"
        }
      ],
      "stateMutability": "pure",
      "type": "function"
    },
    {
      "inputs": [
        {
          "internalType": "address",
          "name": "_beneficiary",
          "type": "address"
        },
        {
          "internalType": "uint256",
          "name": "_start",
          "type": "uint256"
        },
        {
          "internalType": "uint256",
          "name": "_cliff",
          "type": "uint256"
        },
        {
          "internalType": "uint256",
          "name": "_duration",
          "type": "uint256"
        },
        {
          "internalType": "uint256",
          "name": "_slicePeriodSeconds",
          "type": "uint256"
        },
        {
          "internalType": "bool",
          "name": "_revocable",
          "type": "bool"
        },
        {
          "internalType": "uint256",
          "name": "_amount",
          "type": "uint256"
        },
        {
          "internalType": "uint256",
          "name": "_TGE",
          "type": "uint256"
        },
        {
          "internalType": "uint256",
          "name": "_price",
          "type": "uint256"
        }
      ],
      "name": "createVestingSchedule",
      "outputs": [],
      "stateMutability": "nonpayable",
      "type": "function"
    },
    {
      "inputs": [
        {
          "internalType": "address",
          "name": "holder",
          "type": "address"
        }
      ],
      "name": "getLastVestingScheduleForHolder",
      "outputs": [
        {
          "components": [
            {
              "internalType": "bool",
              "name": "initialized",
              "type": "bool"
            },
            {
              "internalType": "address",
              "name": "beneficiary",
              "type": "address"
            },
            {
              "internalType": "uint256",
              "name": "cliff",
              "type": "uint256"
            },
            {
              "internalType": "uint256",
              "name": "start",
              "type": "uint256"
            },
            {
              "internalType": "uint256",
              "name": "duration",
              "type": "uint256"
            },
            {
              "internalType": "uint256",
              "name": "slicePeriodSeconds",
              "type": "uint256"
            },
            {
              "internalType": "bool",
              "name": "revocable",
              "type": "bool"
            },
            {
              "internalType": "uint256",
              "name": "amountTotal",
              "type": "uint256"
            },
            {
              "internalType": "uint256",
              "name": "TGEPercentage",
              "type": "uint256"
            },
            {
              "internalType": "uint256",
              "name": "released",
              "type": "uint256"
            },
            {
              "internalType": "bool",
              "name": "revoked",
              "type": "bool"
            },
            {
              "internalType": "uint256",
              "name": "pausedTime",
              "type": "uint256"
            },
            {
              "internalType": "uint256",
              "name": "totalPausedDuration",
              "type": "uint256"
            },
            {
              "internalType": "uint256",
              "name": "price",
              "type": "uint256"
            }
          ],
          "internalType": "struct TokenVesting.VestingSchedule",
          "name": "",
          "type": "tuple"
        }
      ],
      "stateMutability": "view",
      "type": "function"
    },
    {
      "inputs": [],
      "name": "getToken",
      "outputs": [
        {
          "internalType": "address",
          "name": "",
          "type": "address"
        }
      ],
      "stateMutability": "view",
      "type": "function"
    },
    {
      "inputs": [
        {
          "internalType": "uint256",
          "name": "index",
          "type": "uint256"
        }
      ],
      "name": "getVestingIdAtIndex",
      "outputs": [
        {
          "internalType": "bytes32",
          "name": "",
          "type": "bytes32"
        }
      ],
      "stateMutability": "view",
      "type": "function"
    },
    {
      "inputs": [
        {
          "internalType": "bytes32",
          "name": "vestingScheduleId",
          "type": "bytes32"
        }
      ],
      "name": "getVestingSchedule",
      "outputs": [
        {
          "components": [
            {
              "internalType": "bool",
              "name": "initialized",
              "type": "bool"
            },
            {
              "internalType": "address",
              "name": "beneficiary",
              "type": "address"
            },
            {
              "internalType": "uint256",
              "name": "cliff",
              "type": "uint256"
            },
            {
              "internalType": "uint256",
              "name": "start",
              "type": "uint256"
            },
            {
              "internalType": "uint256",
              "name": "duration",
              "type": "uint256"
            },
            {
              "internalType": "uint256",
              "name": "slicePeriodSeconds",
              "type": "uint256"
            },
            {
              "internalType": "bool",
              "name": "revocable",
              "type": "bool"
            },
            {
              "internalType": "uint256",
              "name": "amountTotal",
              "type": "uint256"
            },
            {
              "internalType": "uint256",
              "name": "TGEPercentage",
              "type": "uint256"
            },
            {
              "internalType": "uint256",
              "name": "released",
              "type": "uint256"
            },
            {
              "internalType": "bool",
              "name": "revoked",
              "type": "bool"
            },
            {
              "internalType": "uint256",
              "name": "pausedTime",
              "type": "uint256"
            },
            {
              "internalType": "uint256",
              "name": "totalPausedDuration",
              "type": "uint256"
            },
            {
              "internalType": "uint256",
              "name": "price",
              "type": "uint256"
            }
          ],
          "internalType": "struct TokenVesting.VestingSchedule",
          "name": "",
          "type": "tuple"
        }
      ],
      "stateMutability": "view",
      "type": "function"
    },
    {
      "inputs": [
        {
          "internalType": "address",
          "name": "holder",
          "type": "address"
        },
        {
          "internalType": "uint256",
          "name": "index",
          "type": "uint256"
        }
      ],
      "name": "getVestingScheduleByAddressAndIndex",
      "outputs": [
        {
          "components": [
            {
              "internalType": "bool",
              "name": "initialized",
              "type": "bool"
            },
            {
              "internalType": "address",
              "name": "beneficiary",
              "type": "address"
            },
            {
              "internalType": "uint256",
              "name": "cliff",
              "type": "uint256"
            },
            {
              "internalType": "uint256",
              "name": "start",
              "type": "uint256"
            },
            {
              "internalType": "uint256",
              "name": "duration",
              "type": "uint256"
            },
            {
              "internalType": "uint256",
              "name": "slicePeriodSeconds",
              "type": "uint256"
            },
            {
              "internalType": "bool",
              "name": "revocable",
              "type": "bool"
            },
            {
              "internalType": "uint256",
              "name": "amountTotal",
              "type": "uint256"
            },
            {
              "internalType": "uint256",
              "name": "TGEPercentage",
              "type": "uint256"
            },
            {
              "internalType": "uint256",
              "name": "released",
              "type": "uint256"
            },
            {
              "internalType": "bool",
              "name": "revoked",
              "type": "bool"
            },
            {
              "internalType": "uint256",
              "name": "pausedTime",
              "type": "uint256"
            },
            {
              "internalType": "uint256",
              "name": "totalPausedDuration",
              "type": "uint256"
            },
            {
              "internalType": "uint256",
              "name": "price",
              "type": "uint256"
            }
          ],
          "internalType": "struct TokenVesting.VestingSchedule",
          "name": "",
          "type": "tuple"
        }
      ],
      "stateMutability": "view",
      "type": "function"
    },
    {
      "inputs": [],
      "name": "getVestingSchedulesCount",
      "outputs": [
        {
          "internalType": "uint256",
          "name": "",
          "type": "uint256"
        }
      ],
      "stateMutability": "view",
      "type": "function"
    },
    {
      "inputs": [
        {
          "internalType": "address",
          "name": "_beneficiary",
          "type": "address"
        }
      ],
      "name": "getVestingSchedulesCountByBeneficiary",
      "outputs": [
        {
          "internalType": "uint256",
          "name": "",
          "type": "uint256"
        }
      ],
      "stateMutability": "view",
      "type": "function"
    },
    {
      "inputs": [],
      "name": "getVestingSchedulesTotalAmount",
      "outputs": [
        {
          "internalType": "uint256",
          "name": "",
          "type": "uint256"
        }
      ],
      "stateMutability": "view",
      "type": "function"
    },
    {
      "inputs": [],
      "name": "getWithdrawableAmount",
      "outputs": [
        {
          "internalType": "uint256",
          "name": "",
          "type": "uint256"
        }
      ],
      "stateMutability": "view",
      "type": "function"
    },
    {
      "inputs": [],
      "name": "owner",
      "outputs": [
        {
          "internalType": "address",
          "name": "",
          "type": "address"
        }
      ],
      "stateMutability": "view",
      "type": "function"
    },
    {
      "inputs": [
        {
          "internalType": "bytes32",
          "name": "vestingScheduleId",
          "type": "bytes32"
        },
        {
          "internalType": "uint256",
          "name": "amount",
          "type": "uint256"
        }
      ],
      "name": "release",
      "outputs": [],
      "stateMutability": "nonpayable",
      "type": "function"
    },
    {
      "inputs": [
        {
          "internalType": "bytes32",
          "name": "vestingScheduleId",
          "type": "bytes32"
        }
      ],
      "name": "releaseRevoked",
      "outputs": [],
      "stateMutability": "nonpayable",
      "type": "function"
    },
    {
      "inputs": [],
      "name": "renounceOwnership",
      "outputs": [],
      "stateMutability": "nonpayable",
      "type": "function"
    },
    {
      "inputs": [
        {
          "internalType": "bytes32",
          "name": "vestingScheduleId",
          "type": "bytes32"
        }
      ],
      "name": "revoke",
      "outputs": [],
      "stateMutability": "nonpayable",
      "type": "function"
    },
    {
      "inputs": [
        {
          "internalType": "address",
          "name": "token_",
          "type": "address"
        }
      ],
      "name": "setToken",
      "outputs": [],
      "stateMutability": "nonpayable",
      "type": "function"
    },
    {
      "inputs": [
        {
          "components": [
            {
              "internalType": "address",
              "name": "beneficiary",
              "type": "address"
            },
            {
              "internalType": "uint256",
              "name": "cliff",
              "type": "uint256"
            },
            {
              "internalType": "uint256",
              "name": "start",
              "type": "uint256"
            },
            {
              "internalType": "uint256",
              "name": "duration",
              "type": "uint256"
            },
            {
              "internalType": "uint256",
              "name": "slicePeriodSeconds",
              "type": "uint256"
            },
            {
              "internalType": "bool",
              "name": "revocable",
              "type": "bool"
            },
            {
              "internalType": "uint256",
              "name": "amountTotal",
              "type": "uint256"
            },
            {
              "internalType": "uint256",
              "name": "TGEPercentage",
              "type": "uint256"
            },
            {
              "internalType": "uint256",
              "name": "price",
              "type": "uint256"
            }
          ],
          "internalType": "struct TokenVesting.VestingScheduleParam[]",
          "name": "vestingScheduleParams",
          "type": "tuple[]"
        }
      ],
      "name": "startVesting",
      "outputs": [],
      "stateMutability": "nonpayable",
      "type": "function"
    },
    {
      "inputs": [
        {
          "internalType": "address",
          "name": "newOwner",
          "type": "address"
        }
      ],
      "name": "transferOwnership",
      "outputs": [],
      "stateMutability": "nonpayable",
      "type": "function"
    },
    {
      "inputs": [
        {
          "internalType": "bytes32",
          "name": "vestingScheduleId",
          "type": "bytes32"
        },
        {
          "internalType": "address",
          "name": "_newaddress",
          "type": "address"
        }
      ],
      "name": "updateBeneficiary",
      "outputs": [],
      "stateMutability": "nonpayable",
      "type": "function"
    },
    {
      "inputs": [
        {
          "internalType": "uint256",
          "name": "amount",
          "type": "uint256"
        }
      ],
      "name": "withdraw",
      "outputs": [],
      "stateMutability": "nonpayable",
      "type": "function"
    },
    {
      "stateMutability": "payable",
      "type": "receive"
    }
  ],
  "bytecode": "0x60806040523480156200001157600080fd5b5060405162002331380380620023318339810160408190526200003491620000e2565b6200003f3362000075565b60018055600380546001600160a01b039384166001600160a01b031991821617909155600480549290931691161790556200011a565b600080546001600160a01b038381166001600160a01b0319831681178455604051919092169283917f8be0079c531659141344cd1fd0a4f28419497f9722a3daafe3b4186f6b6457e09190a35050565b80516001600160a01b0381168114620000dd57600080fd5b919050565b60008060408385031215620000f657600080fd5b6200010183620000c5565b91506200011160208401620000c5565b90509250929050565b612207806200012a6000396000f3fe6080604052600436106101735760003560e01c80638da5cb5b116100c8578063ea1bb3d511610084578063f51321d711610061578063f51321d714610447578063f7c469f014610467578063f851a44014610487578063f9079b37146104a757005b8063ea1bb3d5146103e7578063ecd1d70e14610407578063f2fde38b1461042757005b80638da5cb5b1461033457806390be10cc146103525780639cfe7836146103675780639ef346b414610387578063b75c7dc6146103a7578063d44f6738146103c757005b80634e71d92d1161012f578063715018a61161010c578063715018a6146102b25780637e913dc6146102c75780638322e1ce146102f45780638af104da1461031457005b80634e71d92d146102475780635a7bb69a1461025c57806366afd8ef1461029257005b8063130836171461017c578063144fa6d7146101a057806321df0da7146101c05780632e1a7d4d146101f25780633106dbbd1461021257806348deb4711461023257005b3661017a57005b005b34801561018857600080fd5b506005545b6040519081526020015b60405180910390f35b3480156101ac57600080fd5b5061017a6101bb366004611c71565b6104c7565b3480156101cc57600080fd5b506002546001600160a01b03165b6040516001600160a01b039091168152602001610197565b3480156101fe57600080fd5b5061017a61020d366004611c8c565b610504565b34801561021e57600080fd5b5061017a61022d366004611c8c565b610612565b34801561023e57600080fd5b5060075461018d565b34801561025357600080fd5b5061017a6106cb565b34801561026857600080fd5b5061018d610277366004611c71565b6001600160a01b031660009081526008602052604090205490565b34801561029e57600080fd5b5061017a6102ad366004611ca5565b61084f565b3480156102be57600080fd5b5061017a610b05565b3480156102d357600080fd5b506102e76102e2366004611c71565b610b19565b6040516101979190611cc7565b34801561030057600080fd5b5061017a61030f366004611e08565b610c1f565b34801561032057600080fd5b5061018d61032f366004611f28565b610d99565b34801561034057600080fd5b506000546001600160a01b03166101da565b34801561035e57600080fd5b5061018d610de1565b34801561037357600080fd5b5061017a610382366004611f52565b610e61565b34801561039357600080fd5b506102e76103a2366004611c8c565b6112f0565b3480156103b357600080fd5b5061017a6103c2366004611c8c565b6113c1565b3480156103d357600080fd5b5061017a6103e2366004611fcd565b61147f565b3480156103f357600080fd5b5061018d610402366004611c8c565b6114df565b34801561041357600080fd5b506003546101da906001600160a01b031681565b34801561043357600080fd5b5061017a610442366004611c71565b61161b565b34801561045357600080fd5b506102e7610462366004611f28565b611691565b34801561047357600080fd5b5061018d610482366004611c71565b6116ad565b34801561049357600080fd5b506004546101da906001600160a01b031681565b3480156104b357600080fd5b5061018d6104c2366004611c8c565b6116d1565b6104cf611759565b6001600160a01b0381166104e257600080fd5b600280546001600160a01b0319166001600160a01b0392909216919091179055565b61050c6117b3565b610514611759565b80306001600160a01b03166390be10cc6040518163ffffffff1660e01b8152600401602060405180830381865afa158015610553573d6000803e3d6000fd5b505050506040513d601f19601f820116820180604052508101906105779190611ff9565b10156105de5760405162461bcd60e51b815260206004820152602b60248201527f546f6b656e56657374696e673a206e6f7420656e6f756768207769746864726160448201526a7761626c652066756e647360a81b60648201526084015b60405180910390fd5b6106066105f36000546001600160a01b031690565b6002546001600160a01b0316908361180c565b61060f60018055565b50565b61061a611759565b600081815260066020526040902054819060ff16151560011461063c57600080fd5b60008181526006602052604090206009015460ff16151560011461065f57600080fd5b6000828152600660205260409020600581015460ff1615156001146106965760405162461bcd60e51b81526004016105d590612012565b600a81015442906106a7908261206e565b82600b01546106b69190612081565b600b83015550600901805460ff191690555050565b60006106d8336000610d99565b905060006106e5826114df565b6003546004546000858152600660205260409020600c01549293506001600160a01b03918216926323b872dd9233921690612710906107249087612094565b61072e91906120c9565b61074090670de0b6b3a7640000612094565b6040516001600160e01b031960e086901b1681526001600160a01b03938416600482015292909116602483015260448201526064016020604051808303816000875af1158015610794573d6000803e3d6000fd5b505050506040513d601f19601f820116820180604052508101906107b891906120dd565b6107fc5760405162461bcd60e51b8152602060048201526015602482015274151bdad95b881d1c985b9cd9995c8819985a5b1959605a1b60448201526064016105d5565b600081116108415760405162461bcd60e51b81526020600482015260126024820152714e6f7468696e6720746f2072656c6561736560701b60448201526064016105d5565b61084b828261084f565b5050565b6108576117b3565b600082815260066020526040902054829060ff16151560011461088c5760405162461bcd60e51b81526004016105d5906120fa565b60008181526006602052604090206009015460ff16156108be5760405162461bcd60e51b81526004016105d5906120fa565b6000838152600660205260408120805491549091336001600160a01b036101009092048216811492919091161481806108f45750805b6109715760405162461bcd60e51b815260206004820152604260248201527f546f6b656e56657374696e673a206f6e6c792062656e6566696369617279206160448201527f6e64206f776e65722063616e2072656c656173652076657374656420746f6b656064820152616e7360f01b608482015260a4016105d5565b604080516101c081018252845460ff808216151583526001600160a01b03610100928390041660208401526001870154938301939093526002860154606083015260038601546080830152600486015460a083015260058601548316151560c0830152600686015460e0830152600786015490820152600885015461012082015260098501549091161515610140820152600a840154610160820152600b840154610180820152600c8401546101a0820152600090610a2f9061185e565b905085811015610aa75760405162461bcd60e51b815260206004820152603d60248201527f546f6b656e56657374696e673a2063616e6e6f742072656c6561736520746f6b60448201527f656e732c206e6f7420656e6f7567682076657374656420746f6b656e7300000060648201526084016105d5565b858460080154610ab79190612081565b600885015583546007546101009091046001600160a01b031690610adc90889061206e565b600755600254610af6906001600160a01b0316828961180c565b50505050505061084b60018055565b610b0d611759565b610b176000611992565b565b610b21611bd7565b6001600160a01b03821660009081526008602052604081205460069190610b5090859061032f9060019061206e565b8152602080820192909252604090810160002081516101c081018352815460ff808216151583526001600160a01b036101009283900416958301959095526001830154938201939093526002820154606082015260038201546080820152600482015460a082015260058201548416151560c0820152600682015460e0820152600782015492810192909252600881015461012083015260098101549092161515610140820152600a820154610160820152600b820154610180820152600c909101546101a082015292915050565b610c27611759565b805160005b81811015610d94576000838281518110610c4857610c4861211b565b60200260200101516000015190506000848381518110610c6a57610c6a61211b565b60200260200101516040015190506000858481518110610c8c57610c8c61211b565b60200260200101516020015190506000868581518110610cae57610cae61211b565b60200260200101516060015190506000878681518110610cd057610cd061211b565b60200260200101516080015190506000888781518110610cf257610cf261211b565b602002602001015160a0015190506000898881518110610d1457610d1461211b565b602002602001015160c00151905060008a8981518110610d3657610d3661211b565b602002602001015160e00151905060008b8a81518110610d5857610d5861211b565b602002602001015161010001519050610d78898989898989898989610e61565b5050505050505050508080610d8c90612131565b915050610c2c565b505050565b6040516bffffffffffffffffffffffff19606084901b166020820152603481018290526000906054016040516020818303038152906040528051906020012090505b92915050565b6007546002546040516370a0823160e01b8152306004820152600092916001600160a01b0316906370a0823190602401602060405180830381865afa158015610e2e573d6000803e3d6000fd5b505050506040513d601f19601f82011682018060405250810190610e529190611ff9565b610e5c919061206e565b905090565b610e69611759565b82306001600160a01b03166390be10cc6040518163ffffffff1660e01b8152600401602060405180830381865afa158015610ea8573d6000803e3d6000fd5b505050506040513d601f19601f82011682018060405250810190610ecc9190611ff9565b1015610f535760405162461bcd60e51b815260206004820152604a60248201527f546f6b656e56657374696e673a2063616e6e6f7420637265617465207665737460448201527f696e67207363686564756c652062656361757365206e6f742073756666696369606482015269656e7420746f6b656e7360b01b608482015260a4016105d5565b60008611610fae5760405162461bcd60e51b815260206004820152602260248201527f546f6b656e56657374696e673a206475726174696f6e206d757374206265203e604482015261020360f41b60648201526084016105d5565b60008311610ffe5760405162461bcd60e51b815260206004820181905260248201527f546f6b656e56657374696e673a20616d6f756e74206d757374206265203e203060448201526064016105d5565b60018510156110655760405162461bcd60e51b815260206004820152602d60248201527f546f6b656e56657374696e673a20736c696365506572696f645365636f6e647360448201526c206d757374206265203e3d203160981b60648201526084016105d5565b604051630f7c469f60e41b81526001600160a01b038a166004820152600090309063f7c469f090602401602060405180830381865afa1580156110ac573d6000803e3d6000fd5b505050506040513d601f19601f820116820180604052508101906110d09190611ff9565b905060006110de898b612081565b9050604051806101c001604052806001151581526020018c6001600160a01b031681526020018281526020018b81526020018981526020018881526020018715158152602001868152602001858152602001600081526020016000151581526020016000815260200160008152602001848152506006600084815260200190815260200160002060008201518160000160006101000a81548160ff02191690831515021790555060208201518160000160016101000a8154816001600160a01b0302191690836001600160a01b0316021790555060408201518160010155606082015181600201556080820151816003015560a0820151816004015560c08201518160050160006101000a81548160ff02191690831515021790555060e08201518160060155610100820151816007015561012082015181600801556101408201518160090160006101000a81548160ff02191690831515021790555061016082015181600a015561018082015181600b01556101a082015181600c01559050508460075461126d9190612081565b6007556005805460018181019092557f036b6384b5eca791c62761152d0c79bb0604c104a5fb6f4eb0703f3154bb3db0018390556001600160a01b038c16600090815260086020526040902054906112c6908290612081565b6001600160a01b03909c1660009081526008602052604090209b909b555050505050505050505050565b6112f8611bd7565b5060009081526006602081815260409283902083516101c081018552815460ff808216151583526001600160a01b036101009283900416948301949094526001830154958201959095526002820154606082015260038201546080820152600482015460a082015260058201548316151560c08201529281015460e084015260078101549383019390935260088301546101208301526009830154161515610140820152600a820154610160820152600b820154610180820152600c909101546101a082015290565b6113c9611759565b600081815260066020526040902054819060ff1615156001146113fe5760405162461bcd60e51b81526004016105d5906120fa565b60008181526006602052604090206009015460ff16156114305760405162461bcd60e51b81526004016105d5906120fa565b6000828152600660205260409020600581015460ff1615156001146114675760405162461bcd60e51b81526004016105d590612012565b42600a820155600901805460ff191660011790555050565b611487611759565b600082815260066020526040902054829060ff1615156001146114a957600080fd5b5060009182526006602052604090912080546001600160a01b0390921661010002610100600160a81b0319909216919091179055565b600081815260066020526040812054829060ff1615156001146115145760405162461bcd60e51b81526004016105d5906120fa565b60008181526006602052604090206009015460ff16156115465760405162461bcd60e51b81526004016105d5906120fa565b60008381526006602081815260409283902083516101c081018552815460ff808216151583526001600160a01b036101009283900416948301949094526001830154958201959095526002820154606082015260038201546080820152600482015460a082015260058201548316151560c08201529281015460e084015260078101549383019390935260088301546101208301526009830154161515610140820152600a820154610160820152600b820154610180820152600c8201546101a08201526116139061185e565b949350505050565b611623611759565b6001600160a01b0381166116885760405162461bcd60e51b815260206004820152602660248201527f4f776e61626c653a206e6577206f776e657220697320746865207a65726f206160448201526564647265737360d01b60648201526084016105d5565b61060f81611992565b611699611bd7565b6116a66103a28484610d99565b9392505050565b6001600160a01b038116600090815260086020526040812054610ddb908390610d99565b60006116dc60055490565b82106117345760405162461bcd60e51b815260206004820152602160248201527f546f6b656e56657374696e673a20696e646578206f7574206f6620626f756e646044820152607360f81b60648201526084016105d5565b600582815481106117475761174761211b565b90600052602060002001549050919050565b6000546001600160a01b03163314610b175760405162461bcd60e51b815260206004820181905260248201527f4f776e61626c653a2063616c6c6572206973206e6f7420746865206f776e657260448201526064016105d5565b6002600154036118055760405162461bcd60e51b815260206004820152601f60248201527f5265656e7472616e637947756172643a207265656e7472616e742063616c6c0060448201526064016105d5565b6002600155565b604080516001600160a01b038416602482015260448082018490528251808303909101815260649091019091526020810180516001600160e01b031663a9059cbb60e01b179052610d949084906119e2565b604081015160009042908110156118a1578261012001516127108461010001518560e0015161188d9190612094565b61189791906120c9565b6116a6919061206e565b826080015183606001516118b59190612081565b81106118d0578261012001518360e001516116a6919061206e565b60008361018001518460600151836118e8919061206e565b6118f2919061206e565b60a08501519091506000611906828461214a565b90506000611914828561206e565b905060006127108861010001518960e001516119309190612094565b61193a91906120c9565b90506000886080015183838b60e00151611954919061206e565b61195e9190612094565b61196891906120c9565b6101208a015190915061197b8383612081565b611985919061206e565b9998505050505050505050565b600080546001600160a01b038381166001600160a01b0319831681178455604051919092169283917f8be0079c531659141344cd1fd0a4f28419497f9722a3daafe3b4186f6b6457e09190a35050565b6000611a37826040518060400160405280602081526020017f5361666545524332303a206c6f772d6c6576656c2063616c6c206661696c6564815250856001600160a01b0316611ab49092919063ffffffff16565b805190915015610d945780806020019051810190611a5591906120dd565b610d945760405162461bcd60e51b815260206004820152602a60248201527f5361666545524332303a204552433230206f7065726174696f6e20646964206e6044820152691bdd081cdd58d8d9595960b21b60648201526084016105d5565b6060611613848460008585600080866001600160a01b03168587604051611adb9190612182565b60006040518083038185875af1925050503d8060008114611b18576040519150601f19603f3d011682016040523d82523d6000602084013e611b1d565b606091505b5091509150611b2e87838387611b39565b979650505050505050565b60608315611ba8578251600003611ba1576001600160a01b0385163b611ba15760405162461bcd60e51b815260206004820152601d60248201527f416464726573733a2063616c6c20746f206e6f6e2d636f6e747261637400000060448201526064016105d5565b5081611613565b6116138383815115611bbd5781518083602001fd5b8060405162461bcd60e51b81526004016105d5919061219e565b604051806101c0016040528060001515815260200160006001600160a01b03168152602001600081526020016000815260200160008152602001600081526020016000151581526020016000815260200160008152602001600081526020016000151581526020016000815260200160008152602001600081525090565b80356001600160a01b0381168114611c6c57600080fd5b919050565b600060208284031215611c8357600080fd5b6116a682611c55565b600060208284031215611c9e57600080fd5b5035919050565b60008060408385031215611cb857600080fd5b50508035926020909101359150565b8151151581526101c081016020830151611cec60208401826001600160a01b03169052565b5060408301516040830152606083015160608301526080830151608083015260a083015160a083015260c0830151611d2860c084018215159052565b5060e083810151908301526101008084015190830152610120808401519083015261014080840151151590830152610160808401519083015261018080840151908301526101a092830151929091019190915290565b634e487b7160e01b600052604160045260246000fd5b604051610120810167ffffffffffffffff81118282101715611db857611db8611d7e565b60405290565b604051601f8201601f1916810167ffffffffffffffff81118282101715611de757611de7611d7e565b604052919050565b801515811461060f57600080fd5b8035611c6c81611def565b60006020808385031215611e1b57600080fd5b823567ffffffffffffffff80821115611e3357600080fd5b818501915085601f830112611e4757600080fd5b813581811115611e5957611e59611d7e565b611e67848260051b01611dbe565b8181528481019250610120918202840185019188831115611e8757600080fd5b938501935b82851015611f1c5780858a031215611ea45760008081fd5b611eac611d94565b611eb586611c55565b8152858701358782015260408087013590820152606080870135908201526080808701359082015260a0611eea818801611dfd565b9082015260c0868101359082015260e08087013590820152610100808701359082015284529384019392850192611e8c565b50979650505050505050565b60008060408385031215611f3b57600080fd5b611f4483611c55565b946020939093013593505050565b60008060008060008060008060006101208a8c031215611f7157600080fd5b611f7a8a611c55565b985060208a0135975060408a0135965060608a0135955060808a0135945060a08a0135611fa681611def565b8094505060c08a0135925060e08a013591506101008a013590509295985092959850929598565b60008060408385031215611fe057600080fd5b82359150611ff060208401611c55565b90509250929050565b60006020828403121561200b57600080fd5b5051919050565b60208082526026908201527f546f6b656e56657374696e673a2076657374696e67206973206e6f74207265766040820152656f6361626c6560d01b606082015260800190565b634e487b7160e01b600052601160045260246000fd5b81810381811115610ddb57610ddb612058565b80820180821115610ddb57610ddb612058565b60008160001904831182151516156120ae576120ae612058565b500290565b634e487b7160e01b600052601260045260246000fd5b6000826120d8576120d86120b3565b500490565b6000602082840312156120ef57600080fd5b81516116a681611def565b6020808252600790820152661c995d9bdad95960ca1b604082015260600190565b634e487b7160e01b600052603260045260246000fd5b60006001820161214357612143612058565b5060010190565b600082612159576121596120b3565b500690565b60005b83811015612179578181015183820152602001612161565b50506000910152565b6000825161219481846020870161215e565b9190910192915050565b60208152600082518060208401526121bd81604085016020870161215e565b601f01601f1916919091016040019291505056fea2646970667358221220ae44a9ec52c2f956d8a8df4c0462de140272dc795a844f443656da11b551bc7764736f6c63430008100033",
  "linkReferences": {},
  "deployedLinkReferences": {}
}