{
  "_format": "hh-sol-artifact-1",
  "contractName": "MockTokenVesting",
  "sourceName": "contracts/MockTokenTesting.sol",
  "abi": [
    {
      "inputs": [
        {
          "internalType": "address",
          "name": "USDT_",
          "type": "address"
        },
        {
          "internalType": "address",
          "name": "admin_",
          "type": "address"
        }
      ],
      "stateMutability": "nonpayable",
      "type": "constructor"
    },
    {
      "anonymous": false,
      "inputs": [
        {
          "indexed": true,
          "internalType": "address",
          "name": "previousOwner",
          "type": "address"
        },
        {
          "indexed": true,
          "internalType": "address",
          "name": "newOwner",
          "type": "address"
        }
      ],
      "name": "OwnershipTransferred",
      "type": "event"
    },
    {
      "anonymous": false,
      "inputs": [
        {
          "indexed": false,
          "internalType": "uint256",
          "name": "amount",
          "type": "uint256"
        }
      ],
      "name": "Released",
      "type": "event"
    },
    {
      "anonymous": false,
      "inputs": [],
      "name": "Revoked",
      "type": "event"
    },
    {
      "stateMutability": "payable",
      "type": "fallback"
    },
    {
      "inputs": [],
      "name": "_USDT",
      "outputs": [
        {
          "internalType": "contract IERC20",
          "name": "",
          "type": "address"
        }
      ],
      "stateMutability": "view",
      "type": "function"
    },
    {
      "inputs": [],
      "name": "admin",
      "outputs": [
        {
          "internalType": "address",
          "name": "",
          "type": "address"
        }
      ],
      "stateMutability": "view",
      "type": "function"
    },
    {
      "inputs": [],
      "name": "claim",
      "outputs": [],
      "stateMutability": "nonpayable",
      "type": "function"
    },
    {
      "inputs": [
        {
          "internalType": "address",
          "name": "holder",
          "type": "address"
        }
      ],
      "name": "computeNextVestingScheduleIdForHolder",
      "outputs": [
        {
          "internalType": "bytes32",
          "name": "",
          "type": "bytes32"
        }
      ],
      "stateMutability": "view",
      "type": "function"
    },
    {
      "inputs": [
        {
          "internalType": "bytes32",
          "name": "vestingScheduleId",
          "type": "bytes32"
        }
      ],
      "name": "computeReleasableAmount",
      "outputs": [
        {
          "internalType": "uint256",
          "name": "",
          "type": "uint256"
        }
      ],
      "stateMutability": "view",
      "type": "function"
    },
    {
      "inputs": [
        {
          "internalType": "address",
          "name": "holder",
          "type": "address"
        },
        {
          "internalType": "uint256",
          "name": "index",
          "type": "uint256"
        }
      ],
      "name": "computeVestingScheduleIdForAddressAndIndex",
      "outputs": [
        {
          "internalType": "bytes32",
          "name": "",
          "type": "bytes32"
        }
      ],
      "stateMutability": "pure",
      "type": "function"
    },
    {
      "inputs": [
        {
          "internalType": "address",
          "name": "_beneficiary",
          "type": "address"
        },
        {
          "internalType": "uint256",
          "name": "_start",
          "type": "uint256"
        },
        {
          "internalType": "uint256",
          "name": "_cliff",
          "type": "uint256"
        },
        {
          "internalType": "uint256",
          "name": "_duration",
          "type": "uint256"
        },
        {
          "internalType": "uint256",
          "name": "_slicePeriodSeconds",
          "type": "uint256"
        },
        {
          "internalType": "bool",
          "name": "_revocable",
          "type": "bool"
        },
        {
          "internalType": "uint256",
          "name": "_amount",
          "type": "uint256"
        },
        {
          "internalType": "uint256",
          "name": "_TGE",
          "type": "uint256"
        },
        {
          "internalType": "uint256",
          "name": "_price",
          "type": "uint256"
        }
      ],
      "name": "createVestingSchedule",
      "outputs": [],
      "stateMutability": "nonpayable",
      "type": "function"
    },
    {
      "inputs": [
        {
          "internalType": "address",
          "name": "holder",
          "type": "address"
        }
      ],
      "name": "getLastVestingScheduleForHolder",
      "outputs": [
        {
          "components": [
            {
              "internalType": "bool",
              "name": "initialized",
              "type": "bool"
            },
            {
              "internalType": "address",
              "name": "beneficiary",
              "type": "address"
            },
            {
              "internalType": "uint256",
              "name": "cliff",
              "type": "uint256"
            },
            {
              "internalType": "uint256",
              "name": "start",
              "type": "uint256"
            },
            {
              "internalType": "uint256",
              "name": "duration",
              "type": "uint256"
            },
            {
              "internalType": "uint256",
              "name": "slicePeriodSeconds",
              "type": "uint256"
            },
            {
              "internalType": "bool",
              "name": "revocable",
              "type": "bool"
            },
            {
              "internalType": "uint256",
              "name": "amountTotal",
              "type": "uint256"
            },
            {
              "internalType": "uint256",
              "name": "TGEPercentage",
              "type": "uint256"
            },
            {
              "internalType": "uint256",
              "name": "released",
              "type": "uint256"
            },
            {
              "internalType": "bool",
              "name": "revoked",
              "type": "bool"
            },
            {
              "internalType": "uint256",
              "name": "pausedTime",
              "type": "uint256"
            },
            {
              "internalType": "uint256",
              "name": "totalPausedDuration",
              "type": "uint256"
            },
            {
              "internalType": "uint256",
              "name": "price",
              "type": "uint256"
            }
          ],
          "internalType": "struct TokenVesting.VestingSchedule",
          "name": "",
          "type": "tuple"
        }
      ],
      "stateMutability": "view",
      "type": "function"
    },
    {
      "inputs": [],
      "name": "getToken",
      "outputs": [
        {
          "internalType": "address",
          "name": "",
          "type": "address"
        }
      ],
      "stateMutability": "view",
      "type": "function"
    },
    {
      "inputs": [
        {
          "internalType": "uint256",
          "name": "index",
          "type": "uint256"
        }
      ],
      "name": "getVestingIdAtIndex",
      "outputs": [
        {
          "internalType": "bytes32",
          "name": "",
          "type": "bytes32"
        }
      ],
      "stateMutability": "view",
      "type": "function"
    },
    {
      "inputs": [
        {
          "internalType": "bytes32",
          "name": "vestingScheduleId",
          "type": "bytes32"
        }
      ],
      "name": "getVestingSchedule",
      "outputs": [
        {
          "components": [
            {
              "internalType": "bool",
              "name": "initialized",
              "type": "bool"
            },
            {
              "internalType": "address",
              "name": "beneficiary",
              "type": "address"
            },
            {
              "internalType": "uint256",
              "name": "cliff",
              "type": "uint256"
            },
            {
              "internalType": "uint256",
              "name": "start",
              "type": "uint256"
            },
            {
              "internalType": "uint256",
              "name": "duration",
              "type": "uint256"
            },
            {
              "internalType": "uint256",
              "name": "slicePeriodSeconds",
              "type": "uint256"
            },
            {
              "internalType": "bool",
              "name": "revocable",
              "type": "bool"
            },
            {
              "internalType": "uint256",
              "name": "amountTotal",
              "type": "uint256"
            },
            {
              "internalType": "uint256",
              "name": "TGEPercentage",
              "type": "uint256"
            },
            {
              "internalType": "uint256",
              "name": "released",
              "type": "uint256"
            },
            {
              "internalType": "bool",
              "name": "revoked",
              "type": "bool"
            },
            {
              "internalType": "uint256",
              "name": "pausedTime",
              "type": "uint256"
            },
            {
              "internalType": "uint256",
              "name": "totalPausedDuration",
              "type": "uint256"
            },
            {
              "internalType": "uint256",
              "name": "price",
              "type": "uint256"
            }
          ],
          "internalType": "struct TokenVesting.VestingSchedule",
          "name": "",
          "type": "tuple"
        }
      ],
      "stateMutability": "view",
      "type": "function"
    },
    {
      "inputs": [
        {
          "internalType": "address",
          "name": "holder",
          "type": "address"
        },
        {
          "internalType": "uint256",
          "name": "index",
          "type": "uint256"
        }
      ],
      "name": "getVestingScheduleByAddressAndIndex",
      "outputs": [
        {
          "components": [
            {
              "internalType": "bool",
              "name": "initialized",
              "type": "bool"
            },
            {
              "internalType": "address",
              "name": "beneficiary",
              "type": "address"
            },
            {
              "internalType": "uint256",
              "name": "cliff",
              "type": "uint256"
            },
            {
              "internalType": "uint256",
              "name": "start",
              "type": "uint256"
            },
            {
              "internalType": "uint256",
              "name": "duration",
              "type": "uint256"
            },
            {
              "internalType": "uint256",
              "name": "slicePeriodSeconds",
              "type": "uint256"
            },
            {
              "internalType": "bool",
              "name": "revocable",
              "type": "bool"
            },
            {
              "internalType": "uint256",
              "name": "amountTotal",
              "type": "uint256"
            },
            {
              "internalType": "uint256",
              "name": "TGEPercentage",
              "type": "uint256"
            },
            {
              "internalType": "uint256",
              "name": "released",
              "type": "uint256"
            },
            {
              "internalType": "bool",
              "name": "revoked",
              "type": "bool"
            },
            {
              "internalType": "uint256",
              "name": "pausedTime",
              "type": "uint256"
            },
            {
              "internalType": "uint256",
              "name": "totalPausedDuration",
              "type": "uint256"
            },
            {
              "internalType": "uint256",
              "name": "price",
              "type": "uint256"
            }
          ],
          "internalType": "struct TokenVesting.VestingSchedule",
          "name": "",
          "type": "tuple"
        }
      ],
      "stateMutability": "view",
      "type": "function"
    },
    {
      "inputs": [],
      "name": "getVestingSchedulesCount",
      "outputs": [
        {
          "internalType": "uint256",
          "name": "",
          "type": "uint256"
        }
      ],
      "stateMutability": "view",
      "type": "function"
    },
    {
      "inputs": [
        {
          "internalType": "address",
          "name": "_beneficiary",
          "type": "address"
        }
      ],
      "name": "getVestingSchedulesCountByBeneficiary",
      "outputs": [
        {
          "internalType": "uint256",
          "name": "",
          "type": "uint256"
        }
      ],
      "stateMutability": "view",
      "type": "function"
    },
    {
      "inputs": [],
      "name": "getVestingSchedulesTotalAmount",
      "outputs": [
        {
          "internalType": "uint256",
          "name": "",
          "type": "uint256"
        }
      ],
      "stateMutability": "view",
      "type": "function"
    },
    {
      "inputs": [],
      "name": "getWithdrawableAmount",
      "outputs": [
        {
          "internalType": "uint256",
          "name": "",
          "type": "uint256"
        }
      ],
      "stateMutability": "view",
      "type": "function"
    },
    {
      "inputs": [],
      "name": "owner",
      "outputs": [
        {
          "internalType": "address",
          "name": "",
          "type": "address"
        }
      ],
      "stateMutability": "view",
      "type": "function"
    },
    {
      "inputs": [
        {
          "internalType": "bytes32",
          "name": "vestingScheduleId",
          "type": "bytes32"
        },
        {
          "internalType": "uint256",
          "name": "amount",
          "type": "uint256"
        }
      ],
      "name": "release",
      "outputs": [],
      "stateMutability": "nonpayable",
      "type": "function"
    },
    {
      "inputs": [
        {
          "internalType": "bytes32",
          "name": "vestingScheduleId",
          "type": "bytes32"
        }
      ],
      "name": "releaseRevoked",
      "outputs": [],
      "stateMutability": "nonpayable",
      "type": "function"
    },
    {
      "inputs": [],
      "name": "renounceOwnership",
      "outputs": [],
      "stateMutability": "nonpayable",
      "type": "function"
    },
    {
      "inputs": [
        {
          "internalType": "bytes32",
          "name": "vestingScheduleId",
          "type": "bytes32"
        }
      ],
      "name": "revoke",
      "outputs": [],
      "stateMutability": "nonpayable",
      "type": "function"
    },
    {
      "inputs": [
        {
          "internalType": "uint256",
          "name": "_time",
          "type": "uint256"
        }
      ],
      "name": "setCurrentTime",
      "outputs": [],
      "stateMutability": "nonpayable",
      "type": "function"
    },
    {
      "inputs": [
        {
          "internalType": "address",
          "name": "token_",
          "type": "address"
        }
      ],
      "name": "setToken",
      "outputs": [],
      "stateMutability": "nonpayable",
      "type": "function"
    },
    {
      "inputs": [
        {
          "components": [
            {
              "internalType": "address",
              "name": "beneficiary",
              "type": "address"
            },
            {
              "internalType": "uint256",
              "name": "cliff",
              "type": "uint256"
            },
            {
              "internalType": "uint256",
              "name": "start",
              "type": "uint256"
            },
            {
              "internalType": "uint256",
              "name": "duration",
              "type": "uint256"
            },
            {
              "internalType": "uint256",
              "name": "slicePeriodSeconds",
              "type": "uint256"
            },
            {
              "internalType": "bool",
              "name": "revocable",
              "type": "bool"
            },
            {
              "internalType": "uint256",
              "name": "amountTotal",
              "type": "uint256"
            },
            {
              "internalType": "uint256",
              "name": "TGEPercentage",
              "type": "uint256"
            },
            {
              "internalType": "uint256",
              "name": "price",
              "type": "uint256"
            }
          ],
          "internalType": "struct TokenVesting.VestingScheduleParam[]",
          "name": "vestingScheduleParams",
          "type": "tuple[]"
        }
      ],
      "name": "startVesting",
      "outputs": [],
      "stateMutability": "nonpayable",
      "type": "function"
    },
    {
      "inputs": [
        {
          "internalType": "address",
          "name": "newOwner",
          "type": "address"
        }
      ],
      "name": "transferOwnership",
      "outputs": [],
      "stateMutability": "nonpayable",
      "type": "function"
    },
    {
      "inputs": [
        {
          "internalType": "bytes32",
          "name": "vestingScheduleId",
          "type": "bytes32"
        },
        {
          "internalType": "address",
          "name": "_newaddress",
          "type": "address"
        }
      ],
      "name": "updateBeneficiary",
      "outputs": [],
      "stateMutability": "nonpayable",
      "type": "function"
    },
    {
      "inputs": [
        {
          "internalType": "uint256",
          "name": "amount",
          "type": "uint256"
        }
      ],
      "name": "withdraw",
      "outputs": [],
      "stateMutability": "nonpayable",
      "type": "function"
    },
    {
      "stateMutability": "payable",
      "type": "receive"
    }
  ],
  "bytecode": "0x608060405260006009553480156200001657600080fd5b506040516200238a3803806200238a8339810160408190526200003991620000ec565b818162000046336200007f565b60018055600380546001600160a01b039384166001600160a01b0319918216179091556004805492909316911617905550620001249050565b600080546001600160a01b038381166001600160a01b0319831681178455604051919092169283917f8be0079c531659141344cd1fd0a4f28419497f9722a3daafe3b4186f6b6457e09190a35050565b80516001600160a01b0381168114620000e757600080fd5b919050565b600080604083850312156200010057600080fd5b6200010b83620000cf565b91506200011b60208401620000cf565b90509250929050565b61225680620001346000396000f3fe60806040526004361061018b5760003560e01c80638af104da116100e0578063ea1bb3d511610084578063f51321d711610061578063f51321d71461047f578063f7c469f01461049f578063f851a440146104bf578063f9079b37146104df57005b8063ea1bb3d51461041f578063ecd1d70e1461043f578063f2fde38b1461045f57005b80639cfe7836116100bd5780639cfe78361461039f5780639ef346b4146103bf578063b75c7dc6146103df578063d44f6738146103ff57005b80638af104da1461034c5780638da5cb5b1461036c57806390be10cc1461038a57005b806348deb4711161014757806366afd8ef1161012457806366afd8ef146102ca578063715018a6146102ea5780637e913dc6146102ff5780638322e1ce1461032c57005b806348deb4711461026a5780634e71d92d1461027f5780635a7bb69a1461029457005b80631308361714610194578063144fa6d7146101b857806321df0da7146101d857806322f8e5661461020a5780632e1a7d4d1461022a5780633106dbbd1461024a57005b3661019257005b005b3480156101a057600080fd5b506005545b6040519081526020015b60405180910390f35b3480156101c457600080fd5b506101926101d3366004611cc0565b6104ff565b3480156101e457600080fd5b506002546001600160a01b03165b6040516001600160a01b0390911681526020016101af565b34801561021657600080fd5b50610192610225366004611cdb565b600955565b34801561023657600080fd5b50610192610245366004611cdb565b61053c565b34801561025657600080fd5b50610192610265366004611cdb565b61064a565b34801561027657600080fd5b506007546101a5565b34801561028b57600080fd5b5061019261070f565b3480156102a057600080fd5b506101a56102af366004611cc0565b6001600160a01b031660009081526008602052604090205490565b3480156102d657600080fd5b506101926102e5366004611cf4565b610893565b3480156102f657600080fd5b50610192610b49565b34801561030b57600080fd5b5061031f61031a366004611cc0565b610b5d565b6040516101af9190611d16565b34801561033857600080fd5b50610192610347366004611e57565b610c63565b34801561035857600080fd5b506101a5610367366004611f77565b610ddd565b34801561037857600080fd5b506000546001600160a01b03166101f2565b34801561039657600080fd5b506101a5610e25565b3480156103ab57600080fd5b506101926103ba366004611fa1565b610ea5565b3480156103cb57600080fd5b5061031f6103da366004611cdb565b611334565b3480156103eb57600080fd5b506101926103fa366004611cdb565b611405565b34801561040b57600080fd5b5061019261041a36600461201c565b6114c5565b34801561042b57600080fd5b506101a561043a366004611cdb565b611525565b34801561044b57600080fd5b506003546101f2906001600160a01b031681565b34801561046b57600080fd5b5061019261047a366004611cc0565b611661565b34801561048b57600080fd5b5061031f61049a366004611f77565b6116d7565b3480156104ab57600080fd5b506101a56104ba366004611cc0565b6116f3565b3480156104cb57600080fd5b506004546101f2906001600160a01b031681565b3480156104eb57600080fd5b506101a56104fa366004611cdb565b611717565b61050761179f565b6001600160a01b03811661051a57600080fd5b600280546001600160a01b0319166001600160a01b0392909216919091179055565b6105446117f9565b61054c61179f565b80306001600160a01b03166390be10cc6040518163ffffffff1660e01b8152600401602060405180830381865afa15801561058b573d6000803e3d6000fd5b505050506040513d601f19601f820116820180604052508101906105af9190612048565b10156106165760405162461bcd60e51b815260206004820152602b60248201527f546f6b656e56657374696e673a206e6f7420656e6f756768207769746864726160448201526a7761626c652066756e647360a81b60648201526084015b60405180910390fd5b61063e61062b6000546001600160a01b031690565b6002546001600160a01b03169083611852565b61064760018055565b50565b61065261179f565b600081815260066020526040902054819060ff16151560011461067457600080fd5b60008181526006602052604090206009015460ff16151560011461069757600080fd5b6000828152600660205260409020600581015460ff1615156001146106ce5760405162461bcd60e51b815260040161060d90612061565b60006106d960095490565b905081600a0154816106eb91906120bd565b82600b01546106fa91906120d0565b600b83015550600901805460ff191690555050565b600061071c336000610ddd565b9050600061072982611525565b6003546004546000858152600660205260409020600c01549293506001600160a01b03918216926323b872dd92339216906127109061076890876120e3565b6107729190612118565b61078490670de0b6b3a76400006120e3565b6040516001600160e01b031960e086901b1681526001600160a01b03938416600482015292909116602483015260448201526064016020604051808303816000875af11580156107d8573d6000803e3d6000fd5b505050506040513d601f19601f820116820180604052508101906107fc919061212c565b6108405760405162461bcd60e51b8152602060048201526015602482015274151bdad95b881d1c985b9cd9995c8819985a5b1959605a1b604482015260640161060d565b600081116108855760405162461bcd60e51b81526020600482015260126024820152714e6f7468696e6720746f2072656c6561736560701b604482015260640161060d565b61088f8282610893565b5050565b61089b6117f9565b600082815260066020526040902054829060ff1615156001146108d05760405162461bcd60e51b815260040161060d90612149565b60008181526006602052604090206009015460ff16156109025760405162461bcd60e51b815260040161060d90612149565b6000838152600660205260408120805491549091336001600160a01b036101009092048216811492919091161481806109385750805b6109b55760405162461bcd60e51b815260206004820152604260248201527f546f6b656e56657374696e673a206f6e6c792062656e6566696369617279206160448201527f6e64206f776e65722063616e2072656c656173652076657374656420746f6b656064820152616e7360f01b608482015260a40161060d565b604080516101c081018252845460ff808216151583526001600160a01b03610100928390041660208401526001870154938301939093526002860154606083015260038601546080830152600486015460a083015260058601548316151560c0830152600686015460e0830152600786015490820152600885015461012082015260098501549091161515610140820152600a840154610160820152600b840154610180820152600c8401546101a0820152600090610a73906118a4565b905085811015610aeb5760405162461bcd60e51b815260206004820152603d60248201527f546f6b656e56657374696e673a2063616e6e6f742072656c6561736520746f6b60448201527f656e732c206e6f7420656e6f7567682076657374656420746f6b656e73000000606482015260840161060d565b858460080154610afb91906120d0565b600885015583546007546101009091046001600160a01b031690610b209088906120bd565b600755600254610b3a906001600160a01b03168289611852565b50505050505061088f60018055565b610b5161179f565b610b5b60006119e1565b565b610b65611c26565b6001600160a01b03821660009081526008602052604081205460069190610b94908590610367906001906120bd565b8152602080820192909252604090810160002081516101c081018352815460ff808216151583526001600160a01b036101009283900416958301959095526001830154938201939093526002820154606082015260038201546080820152600482015460a082015260058201548416151560c0820152600682015460e0820152600782015492810192909252600881015461012083015260098101549092161515610140820152600a820154610160820152600b820154610180820152600c909101546101a082015292915050565b610c6b61179f565b805160005b81811015610dd8576000838281518110610c8c57610c8c61216a565b60200260200101516000015190506000848381518110610cae57610cae61216a565b60200260200101516040015190506000858481518110610cd057610cd061216a565b60200260200101516020015190506000868581518110610cf257610cf261216a565b60200260200101516060015190506000878681518110610d1457610d1461216a565b60200260200101516080015190506000888781518110610d3657610d3661216a565b602002602001015160a0015190506000898881518110610d5857610d5861216a565b602002602001015160c00151905060008a8981518110610d7a57610d7a61216a565b602002602001015160e00151905060008b8a81518110610d9c57610d9c61216a565b602002602001015161010001519050610dbc898989898989898989610ea5565b5050505050505050508080610dd090612180565b915050610c70565b505050565b6040516bffffffffffffffffffffffff19606084901b166020820152603481018290526000906054016040516020818303038152906040528051906020012090505b92915050565b6007546002546040516370a0823160e01b8152306004820152600092916001600160a01b0316906370a0823190602401602060405180830381865afa158015610e72573d6000803e3d6000fd5b505050506040513d601f19601f82011682018060405250810190610e969190612048565b610ea091906120bd565b905090565b610ead61179f565b82306001600160a01b03166390be10cc6040518163ffffffff1660e01b8152600401602060405180830381865afa158015610eec573d6000803e3d6000fd5b505050506040513d601f19601f82011682018060405250810190610f109190612048565b1015610f975760405162461bcd60e51b815260206004820152604a60248201527f546f6b656e56657374696e673a2063616e6e6f7420637265617465207665737460448201527f696e67207363686564756c652062656361757365206e6f742073756666696369606482015269656e7420746f6b656e7360b01b608482015260a40161060d565b60008611610ff25760405162461bcd60e51b815260206004820152602260248201527f546f6b656e56657374696e673a206475726174696f6e206d757374206265203e604482015261020360f41b606482015260840161060d565b600083116110425760405162461bcd60e51b815260206004820181905260248201527f546f6b656e56657374696e673a20616d6f756e74206d757374206265203e2030604482015260640161060d565b60018510156110a95760405162461bcd60e51b815260206004820152602d60248201527f546f6b656e56657374696e673a20736c696365506572696f645365636f6e647360448201526c206d757374206265203e3d203160981b606482015260840161060d565b604051630f7c469f60e41b81526001600160a01b038a166004820152600090309063f7c469f090602401602060405180830381865afa1580156110f0573d6000803e3d6000fd5b505050506040513d601f19601f820116820180604052508101906111149190612048565b90506000611122898b6120d0565b9050604051806101c001604052806001151581526020018c6001600160a01b031681526020018281526020018b81526020018981526020018881526020018715158152602001868152602001858152602001600081526020016000151581526020016000815260200160008152602001848152506006600084815260200190815260200160002060008201518160000160006101000a81548160ff02191690831515021790555060208201518160000160016101000a8154816001600160a01b0302191690836001600160a01b0316021790555060408201518160010155606082015181600201556080820151816003015560a0820151816004015560c08201518160050160006101000a81548160ff02191690831515021790555060e08201518160060155610100820151816007015561012082015181600801556101408201518160090160006101000a81548160ff02191690831515021790555061016082015181600a015561018082015181600b01556101a082015181600c0155905050846007546112b191906120d0565b6007556005805460018181019092557f036b6384b5eca791c62761152d0c79bb0604c104a5fb6f4eb0703f3154bb3db0018390556001600160a01b038c166000908152600860205260409020549061130a9082906120d0565b6001600160a01b03909c1660009081526008602052604090209b909b555050505050505050505050565b61133c611c26565b5060009081526006602081815260409283902083516101c081018552815460ff808216151583526001600160a01b036101009283900416948301949094526001830154958201959095526002820154606082015260038201546080820152600482015460a082015260058201548316151560c08201529281015460e084015260078101549383019390935260088301546101208301526009830154161515610140820152600a820154610160820152600b820154610180820152600c909101546101a082015290565b61140d61179f565b600081815260066020526040902054819060ff1615156001146114425760405162461bcd60e51b815260040161060d90612149565b60008181526006602052604090206009015460ff16156114745760405162461bcd60e51b815260040161060d90612149565b6000828152600660205260409020600581015460ff1615156001146114ab5760405162461bcd60e51b815260040161060d90612061565b600954600a820155600901805460ff191660011790555050565b6114cd61179f565b600082815260066020526040902054829060ff1615156001146114ef57600080fd5b5060009182526006602052604090912080546001600160a01b0390921661010002610100600160a81b0319909216919091179055565b600081815260066020526040812054829060ff16151560011461155a5760405162461bcd60e51b815260040161060d90612149565b60008181526006602052604090206009015460ff161561158c5760405162461bcd60e51b815260040161060d90612149565b60008381526006602081815260409283902083516101c081018552815460ff808216151583526001600160a01b036101009283900416948301949094526001830154958201959095526002820154606082015260038201546080820152600482015460a082015260058201548316151560c08201529281015460e084015260078101549383019390935260088301546101208301526009830154161515610140820152600a820154610160820152600b820154610180820152600c8201546101a0820152611659906118a4565b949350505050565b61166961179f565b6001600160a01b0381166116ce5760405162461bcd60e51b815260206004820152602660248201527f4f776e61626c653a206e6577206f776e657220697320746865207a65726f206160448201526564647265737360d01b606482015260840161060d565b610647816119e1565b6116df611c26565b6116ec6103da8484610ddd565b9392505050565b6001600160a01b038116600090815260086020526040812054610e1f908390610ddd565b600061172260055490565b821061177a5760405162461bcd60e51b815260206004820152602160248201527f546f6b656e56657374696e673a20696e646578206f7574206f6620626f756e646044820152607360f81b606482015260840161060d565b6005828154811061178d5761178d61216a565b90600052602060002001549050919050565b6000546001600160a01b03163314610b5b5760405162461bcd60e51b815260206004820181905260248201527f4f776e61626c653a2063616c6c6572206973206e6f7420746865206f776e6572604482015260640161060d565b60026001540361184b5760405162461bcd60e51b815260206004820152601f60248201527f5265656e7472616e637947756172643a207265656e7472616e742063616c6c00604482015260640161060d565b6002600155565b604080516001600160a01b038416602482015260448082018490528251808303909101815260649091019091526020810180516001600160e01b031663a9059cbb60e01b179052610dd8908490611a31565b6000806118b060095490565b905082604001518110156118f0578261012001516127108461010001518560e001516118dc91906120e3565b6118e69190612118565b6116ec91906120bd565b8260800151836060015161190491906120d0565b811061191f578261012001518360e001516116ec91906120bd565b600083610180015184606001518361193791906120bd565b61194191906120bd565b60a085015190915060006119558284612199565b9050600061196382856120bd565b905060006127108861010001518960e0015161197f91906120e3565b6119899190612118565b90506000886080015183838b60e001516119a391906120bd565b6119ad91906120e3565b6119b79190612118565b6101208a01519091506119ca83836120d0565b6119d491906120bd565b9998505050505050505050565b600080546001600160a01b038381166001600160a01b0319831681178455604051919092169283917f8be0079c531659141344cd1fd0a4f28419497f9722a3daafe3b4186f6b6457e09190a35050565b6000611a86826040518060400160405280602081526020017f5361666545524332303a206c6f772d6c6576656c2063616c6c206661696c6564815250856001600160a01b0316611b039092919063ffffffff16565b805190915015610dd85780806020019051810190611aa4919061212c565b610dd85760405162461bcd60e51b815260206004820152602a60248201527f5361666545524332303a204552433230206f7065726174696f6e20646964206e6044820152691bdd081cdd58d8d9595960b21b606482015260840161060d565b6060611659848460008585600080866001600160a01b03168587604051611b2a91906121d1565b60006040518083038185875af1925050503d8060008114611b67576040519150601f19603f3d011682016040523d82523d6000602084013e611b6c565b606091505b5091509150611b7d87838387611b88565b979650505050505050565b60608315611bf7578251600003611bf0576001600160a01b0385163b611bf05760405162461bcd60e51b815260206004820152601d60248201527f416464726573733a2063616c6c20746f206e6f6e2d636f6e7472616374000000604482015260640161060d565b5081611659565b6116598383815115611c0c5781518083602001fd5b8060405162461bcd60e51b815260040161060d91906121ed565b604051806101c0016040528060001515815260200160006001600160a01b03168152602001600081526020016000815260200160008152602001600081526020016000151581526020016000815260200160008152602001600081526020016000151581526020016000815260200160008152602001600081525090565b80356001600160a01b0381168114611cbb57600080fd5b919050565b600060208284031215611cd257600080fd5b6116ec82611ca4565b600060208284031215611ced57600080fd5b5035919050565b60008060408385031215611d0757600080fd5b50508035926020909101359150565b8151151581526101c081016020830151611d3b60208401826001600160a01b03169052565b5060408301516040830152606083015160608301526080830151608083015260a083015160a083015260c0830151611d7760c084018215159052565b5060e083810151908301526101008084015190830152610120808401519083015261014080840151151590830152610160808401519083015261018080840151908301526101a092830151929091019190915290565b634e487b7160e01b600052604160045260246000fd5b604051610120810167ffffffffffffffff81118282101715611e0757611e07611dcd565b60405290565b604051601f8201601f1916810167ffffffffffffffff81118282101715611e3657611e36611dcd565b604052919050565b801515811461064757600080fd5b8035611cbb81611e3e565b60006020808385031215611e6a57600080fd5b823567ffffffffffffffff80821115611e8257600080fd5b818501915085601f830112611e9657600080fd5b813581811115611ea857611ea8611dcd565b611eb6848260051b01611e0d565b8181528481019250610120918202840185019188831115611ed657600080fd5b938501935b82851015611f6b5780858a031215611ef35760008081fd5b611efb611de3565b611f0486611ca4565b8152858701358782015260408087013590820152606080870135908201526080808701359082015260a0611f39818801611e4c565b9082015260c0868101359082015260e08087013590820152610100808701359082015284529384019392850192611edb565b50979650505050505050565b60008060408385031215611f8a57600080fd5b611f9383611ca4565b946020939093013593505050565b60008060008060008060008060006101208a8c031215611fc057600080fd5b611fc98a611ca4565b985060208a0135975060408a0135965060608a0135955060808a0135945060a08a0135611ff581611e3e565b8094505060c08a0135925060e08a013591506101008a013590509295985092959850929598565b6000806040838503121561202f57600080fd5b8235915061203f60208401611ca4565b90509250929050565b60006020828403121561205a57600080fd5b5051919050565b60208082526026908201527f546f6b656e56657374696e673a2076657374696e67206973206e6f74207265766040820152656f6361626c6560d01b606082015260800190565b634e487b7160e01b600052601160045260246000fd5b81810381811115610e1f57610e1f6120a7565b80820180821115610e1f57610e1f6120a7565b60008160001904831182151516156120fd576120fd6120a7565b500290565b634e487b7160e01b600052601260045260246000fd5b60008261212757612127612102565b500490565b60006020828403121561213e57600080fd5b81516116ec81611e3e565b6020808252600790820152661c995d9bdad95960ca1b604082015260600190565b634e487b7160e01b600052603260045260246000fd5b600060018201612192576121926120a7565b5060010190565b6000826121a8576121a8612102565b500690565b60005b838110156121c85781810151838201526020016121b0565b50506000910152565b600082516121e38184602087016121ad565b9190910192915050565b602081526000825180602084015261220c8160408501602087016121ad565b601f01601f1916919091016040019291505056fea2646970667358221220c0abb2c80015e76041cf61d78d3d4bb88be5cf8db8b6f04fc878e0b1cf2d7d0f64736f6c63430008100033",
  "linkReferences": {},
  "deployedLinkReferences": {}
}